{
  "contractName": "Splitter",
  "abi": [
    {
      "constant": false,
      "inputs": [
        {
          "name": "_bob",
          "type": "address"
        },
        {
          "name": "_carol",
          "type": "address"
        }
      ],
      "name": "SetAddresses",
      "outputs": [],
      "payable": false,
      "stateMutability": "nonpayable",
      "type": "function"
    },
    {
      "constant": false,
      "inputs": [],
      "name": "split",
      "outputs": [
        {
          "name": "",
          "type": "bool"
        }
      ],
      "payable": true,
      "stateMutability": "payable",
      "type": "function"
    },
    {
      "inputs": [],
      "payable": false,
      "stateMutability": "nonpayable",
      "type": "constructor"
    },
    {
      "anonymous": false,
      "inputs": [
        {
          "indexed": true,
          "name": "_from",
          "type": "address"
        },
        {
          "indexed": true,
          "name": "_to",
          "type": "address"
        },
        {
          "indexed": false,
          "name": "_value",
          "type": "uint256"
        }
      ],
      "name": "Transfer",
      "type": "event"
    },
    {
      "anonymous": false,
      "inputs": [
        {
          "indexed": false,
          "name": "_a1",
          "type": "address"
        },
        {
          "indexed": false,
          "name": "_a2",
          "type": "address"
        }
      ],
      "name": "LogAddresses",
      "type": "event"
    }
  ],
  "bytecode": "0x6060604052341561000f57600080fd5b336000806101000a81548173ffffffffffffffffffffffffffffffffffffffff021916908373ffffffffffffffffffffffffffffffffffffffff1602179055506106008061005e6000396000f30060606040526004361061004c576000357c0100000000000000000000000000000000000000000000000000000000900463ffffffff1680631cbc7a9614610051578063f7654176146100a9575b600080fd5b341561005c57600080fd5b6100a7600480803573ffffffffffffffffffffffffffffffffffffffff1690602001909190803573ffffffffffffffffffffffffffffffffffffffff169060200190919050506100cb565b005b6100b1610301565b604051808215151515815260200191505060405180910390f35b33600160006101000a81548173ffffffffffffffffffffffffffffffffffffffff021916908373ffffffffffffffffffffffffffffffffffffffff16021790555081600260006101000a81548173ffffffffffffffffffffffffffffffffffffffff021916908373ffffffffffffffffffffffffffffffffffffffff1602179055506000600260009054906101000a900473ffffffffffffffffffffffffffffffffffffffff1673ffffffffffffffffffffffffffffffffffffffff161415151561019557600080fd5b80600360006101000a81548173ffffffffffffffffffffffffffffffffffffffff021916908373ffffffffffffffffffffffffffffffffffffffff1602179055506000600360009054906101000a900473ffffffffffffffffffffffffffffffffffffffff1673ffffffffffffffffffffffffffffffffffffffff161415151561021e57600080fd5b7fd86ffc2c85f94c6afaac99e8cbe01b45b4d35cbde1bfdcb55fc924ebaea8f0cc8282604051808373ffffffffffffffffffffffffffffffffffffffff1673ffffffffffffffffffffffffffffffffffffffff1681526020018273ffffffffffffffffffffffffffffffffffffffff1673ffffffffffffffffffffffffffffffffffffffff1681526020019250505060405180910390a16000600260009054906101000a900473ffffffffffffffffffffffffffffffffffffffff1673ffffffffffffffffffffffffffffffffffffffff16141515156102fd57600080fd5b5050565b600080600160009054906101000a900473ffffffffffffffffffffffffffffffffffffffff1673ffffffffffffffffffffffffffffffffffffffff163373ffffffffffffffffffffffffffffffffffffffff1614151561036057600080fd5b60003411151561036f57600080fd5b6000600260009054906101000a900473ffffffffffffffffffffffffffffffffffffffff1673ffffffffffffffffffffffffffffffffffffffff16141515156103b757600080fd5b6000600360009054906101000a900473ffffffffffffffffffffffffffffffffffffffff1673ffffffffffffffffffffffffffffffffffffffff16141515156103ff57600080fd5b60023481151561040b57fe5b049050600260009054906101000a900473ffffffffffffffffffffffffffffffffffffffff1673ffffffffffffffffffffffffffffffffffffffff166108fc829081150290604051600060405180830381858888f1935050505050600260009054906101000a900473ffffffffffffffffffffffffffffffffffffffff1673ffffffffffffffffffffffffffffffffffffffff163373ffffffffffffffffffffffffffffffffffffffff167fddf252ad1be2c89b69c2b068fc378daa952ba7f163c4a11628f55a4df523b3ef836040518082815260200191505060405180910390a3600360009054906101000a900473ffffffffffffffffffffffffffffffffffffffff1673ffffffffffffffffffffffffffffffffffffffff166108fc829081150290604051600060405180830381858888f1935050505050600360009054906101000a900473ffffffffffffffffffffffffffffffffffffffff1673ffffffffffffffffffffffffffffffffffffffff163373ffffffffffffffffffffffffffffffffffffffff167fddf252ad1be2c89b69c2b068fc378daa952ba7f163c4a11628f55a4df523b3ef836040518082815260200191505060405180910390a36001915050905600a165627a7a72305820942e8d44f117af2b3ab9c0dc0c47cc659c5bac57817d1b7c326b0d1787706e6d0029",
  "source": "pragma solidity ^0.4.2;\n\nimport \"./ConvertLib.sol\";\n\n//\n// This is just a simple example of sending funds to a smart contract\n// The funds are split between two parties specified in the SetAddresses function\n// Alice is the sender.  Only when Alice sends, is the money split\n// Bob and Carol receive the ether split evenly between them\n// \n\ncontract Splitter {\n\taddress owner;\t// owner can be anyone\n\taddress alice;  // setter of addresses, and sender of funds\n\taddress bob;    // first of split recipients\n\taddress carol;  // second of split recipients\n\n\tevent Transfer(address indexed _from, address indexed _to, uint256 _value);\n\tevent LogAddresses(address _a1, address _a2);\n\n\tfunction Splitter() { // owner can be anyone;\n\t\towner = msg.sender;\n\t}\n\n\tfunction SetAddresses(address _bob, address _carol) public {\n\t\talice = msg.sender;\n\t\tbob = _bob;\n\t\trequire(bob != 0);\n\t\tcarol = _carol;\n\t\trequire(carol != 0);\n\t\tLogAddresses(_bob, _carol);\n\t\trequire (bob != 0);\n\t}\n\n\n\tfunction split() payable public returns (bool) {\n\tuint splitAmount;\n\t\trequire(msg.sender == alice);  \t// only the alice can send funds \n\t\trequire(msg.value > 0);        \t// send zero or more\n\t\trequire(bob != 0);\t\t\t\t// fail if zero address\n\t\trequire(carol != 0);\t\t\t// fail if zero address\n\t\tsplitAmount = msg.value / 2;\t// measured in wei, if we lose one, too bad\n\t\tif (!bob.send(splitAmount)) {\n\t\t\t// TODO: handle bob.send error\n\t\t}\n\t\tTransfer(msg.sender, bob, splitAmount);\n\n\t\tif (!carol.send(splitAmount)) {\n\t\t\t// TODO: handle carol.send error\n\t\t}\n\t\tTransfer(msg.sender, carol, splitAmount);\n\t\treturn true;\n\t}\n\n}\n",
  "sourcePath": "/home/craig/repos/split/contracts/Splitter.sol",
  "compiler": {
    "name": "solc",
    "version": "0.4.18+commit.9cf6e910.Emscripten.clang"
  },
  "schemaVersion": "1.0.1",
  "updatedAt": "2017-12-27T21:48:46.358Z"
}